:020000040800F2
:10000000C8FD01205D020008E55B0108574E0108AC
:100010004D5B0108D512010879B601080000000007
:100020000000000000000000000000009D0100082A
:10003000B914010800000000F9010008C9710108A5
:1000400077020008770200087702000877020008AC
:10005000770200087702000877020008770200089C
:10006000770200087702000877020008770200088C
:10007000770200087702000877020008770200087C
:10008000770200087702000877020008770200086C
:10009000770200087702000877020008770200085C
:1000A000770200087702000877020008770200084C
:1000B000770200087702000877020008770200083C
:1000C000770200087702000877020008770200082C
:1000D000770200087702000877020008770200081C
:1000E000770200087702000877020008770200080C
:1000F00077020008770200087702000877020008FC
:1001000077020008BD5C010877020008770200084A
:1001100077020008770200087702000877020008DB
:1001200077020008770200087702000831130108FF
:1001300077020008770200087702000877020008BB
:10014000770200087702000877020008E95B0108DF
:1001500077020008411301087702000877020008BF
:10016000770200087702000877020008770200088B
:1001700077020008770200087702000800000000FC
:100180007702000877020008DFF80CD000F09AFC34
:1001900000480047ED320208C8FD01202C4B1968C9
:1001A0000868B0E8F04F80F30988BFF36F8F4FF015
:1001B000000080F3118870470000000008480068C4
:1001C000006880F308884FF0000080F3148862B65E
:1001D00061B6BFF34F8FBFF36F8F00DF00BF00BF6B
:1001E00008ED00E0DFF80C00016841F470010160E7
:1001F000704700BF88ED00E0EFF30980BFF36F8F19
:10020000134B1A681EF0100F08BF20ED108A20E96A
:10021000F04F106009B44FF0500080F31188BFF325
:100220004F8FBFF36F8F30F0D7FD4FF0000080F39A
:10023000118809BC19680868B0E8F04F1EF0100F6B
:1002400008BFB0EC108A80F30988BFF36F8F704746
:1002500038000020EFF30580704700000648804713
:1002600006480047FEE7FEE7FEE7FEE7FEE7FEE79B
:10027000FEE7FEE7FEE7FEE791720108890100084C
:100280002DE9F05F0546002092469B4688460646CB
:10029000814640241BE0284641464746224600F05E
:1002A000F5FA53465A46C01A914110D311461846E2
:1002B000224600F0DCFA2D1A67EB01084F46224671
:1002C0000120002100F0D3FA17EB00094E41201E57
:1002D000A4F10104DFDC484631462A464346BDE826
:1002E000F09F10B5441A0346944209D28418114471
:1002F00003E011F8013D04F8013D521EF9D210BD92
:1003000040EA0104A40703D009E010C9121F10C37A
:10031000042AFAD203E011F8014B03F8014B521EF4
:10032000F9D210BDD2B201E000F8012B491EFBD278
:1003300070470022F6E710B513460A4604461946F0
:10034000FFF7F0FF204610BD10B5044604E00B781F
:1003500000F8013B03B1491C521EF8D2204610BDE3
:10036000421C10F8011B0029FBD1801A704710B500
:10037000002200E0521C835C8C5CA34201D1002B64
:10038000F8D1D8B2E1B2401A10BD30B50446002011
:10039000034600E05B1C934203D2E05CCD5C401B53
:1003A000F8D030BD034611F8012B00F8012B002ACC
:1003B000F9D1184670472DE9FE4F804681EA0300C7
:1003C000C00F0C46009021F0004123F00045B8EB2F
:1003D0000200A94105D24046214690461C460B46E4
:1003E000024623F00040104347D0270DC7F30A0010
:1003F000C3F30A510290401A019040286BDAC3F30C
:10040000130040F4801B0098924620B10023D2EBE9
:10041000030A63EB0B0B01985946C0F140025046AA
:1004200000F025FA06460D4650465946019A00F05E
:100430003DFA10EB08006141002487EA115284EA7A
:10044000E7731A4340D0009A62B3019A012A4FEA37
:10045000075215DC001B61EB02014FF0004202EA7B
:100460000752CDE90042001C41F5801132462B466F
:1004700000F0C2FA03B0BDE8F08F40462146F9E72C
:10048000001B61EB0201001C41F5801300185B4169
:100490002018A2F5001747EB030140EAD570B61902
:1004A0006D4111E06D084FEA360645EAC0754FEA26
:1004B0000752001B61EB0201001C41F58011490845
:1004C0004FEA30000019514132462B4603B0BDE8D7
:1004D000F04F00F082BA0098012240000023D0EBD8
:1004E000020263EBE073009821464FEAE074B8EB38
:1004F000000061EB0401E9E783F000435BE781F072
:10050000004158E72DE9FE4F81EA030404F000445E
:1005100021F0004100944FF0000B23F0004350EA1B
:1005200001045ED052EA03045BD0C3F30A54C1F362
:100530000A552C44A4F2F3340194A0FB0254C1F3F5
:10054000130141F48011C3F3130343F4801301FB3F
:10055000024400FB034E840A970A44EA815447EAA6
:100560008357A4FB076802958D0A05FB07854FEAB0
:10057000932C04FB0C542705029D4FEA065847EACA
:100580001637B5EB08056EEB070C870E920E47EA9F
:10059000811742EA8312A7FB0201B6EB0B0164EB61
:1005A00000042B0D43EA0C335E1844EB1C50DA4672
:1005B0005146E7FB0201C5F313044FEA0B3343EA4C
:1005C00014534FEA0432019C43EA0603A4F10C04DD
:1005D0000294009CCDE900B400F00EFA03B0BDE82F
:1005E000F08F00200146F9E72DE9F04D81EA030480
:1005F00004F0004B21F0004514464FF0000A23F0B0
:10060000004150EA050220D054EA01021DD0C5F392
:100610000A570246C5F31303C1F31300C1F30A5688
:1006200040F4801543F48013A7EB0608101BD64650
:1006300008F2FD3873EB050002D308F1010801E070
:1006400092185B41B8F1000F03DA00200146BDE8C3
:10065000F08D00204FF48011064684460EE0171BF3
:1006600073EB050705D3121B63EB050306434CEA46
:10067000010C49084FEA300092185B4150EA01072B
:10068000EDD152EA030012D082EA040083EA0501A8
:10069000084305D0101BAB4106D20122002306E01F
:1006A00000224FF0004302E06FF0010253101AEBFA
:1006B00006004CEB085110EB0A0041EB0B01BDE8C2
:1006C000F04D00F08AB90EB5C10F80EAE070084421
:1006D000CA07002140F233438DE80E000A460B465C
:1006E00000F08AF903B000BD0EB540F2334102912B
:1006F0000021CDE900110A460B4600F07DF903B058
:1007000000BD70B5C1F30A5201F000450024C1F3E9
:10071000130140F2FF3341F480119A4201DA0020C4
:1007200070BD40F233439A42A2F2334203DC52429C
:1007300000F0ACF800E090402C43F1D0404270BD96
:10074000C1F30A5210B5C1F3130140F2FF3341F473
:1007500080119A4201DA002010BD40F233439A42E0
:10076000A2F2334203DC524200F090F810BD9040F8
:1007700010BD00F0004230F000400AD0C10D01F57C
:100780006071C0F3160042EA0151C20840071143EC
:10079000704700200146704730B5041E71F1000417
:1007A00004DB4FF00044404264EB0101141E73F17E
:1007B000000405DB1C464FF00043524263EB040388
:1007C0008B4208BF824230BD30B5041E71F1000477
:1007D00004DB4FF00044404264EB0101141E73F14E
:1007E000000405DB1C464FF00043524263EB040358
:1007F000994208BF904230BD01F0004330B421F06F
:10080000004150EA010206D00A0DA2F56072C1F360
:100810001301002A02DC30BC00207047440F44EA78
:10082000C104C100E01830BC00EBC25000F09EB81B
:10083000A0E8004FF0C040F804DB01B5AFF3008042
:10084000BDE8024001C10020704700F12C080C46B1
:1008500058F8040DAFF3008058F8040D85462000C9
:1008600008BF012038E9F00018E9004F7047202A3E
:1008700004DB203A00FA02F1002070479140C2F1F7
:10088000200320FA03F3194390407047202A04DB29
:10089000203A21FA02F00021704721FA02F3D040F9
:1008A000C2F120029140084319467047202A06DB16
:1008B000CB17203A41FA02F043EAE07306E041FA2E
:1008C00002F3D040C2F1200291400843194670471C
:1008D0000FB4002300B589B00CA900910B996FF0FB
:1008E0000042CB601E4B06931E4B07930423CDE9B9
:1008F00001321D4A089202466B46002000F08EF934
:1009000009B05DF814FB70B586B006464FF0FF30B5
:100910000091CDE90101002015460C4604903246B5
:10092000694604A8FFF7D4FF02460498211825B1B0
:1009300008B1084600E020462860049800280DD041
:10094000002A02DD0098884208D0081B0094CDE9F7
:1009500001043246694604A8FFF7BAFF06B070BD2D
:10096000550E0008730E0008E90A00080029A8BF08
:100970007047401C490008BF20F00100704710B4C8
:10098000B0FA80FC00FA0CF050EA010404BF10BC7D
:10099000704749B1CCF1200421FA04F411FA0CF1AA
:1009A00018BF012121430843A3EB0C01CB1D4FEAE3
:1009B00000614FEA102042BF002010BC704700EBDE
:1009C000C35010440029A4BF10BC7047401C49000C
:1009D00008BF20F0010010BC704710B5141E73F161
:1009E000000408DA401C41F1000192185B411A43EF
:1009F00001D120F0010010BD2DE9F04D92469B463B
:100A000011B1B1FA81F202E0B0FA80F220329046E0
:100A1000FFF72DFF04460F4640EA0A0041EA0B01AA
:100A200053465A46084313D0114653EA010019D0E1
:100A3000C8F140025046FFF729FF05460E465046D2
:100A400059464246FFF713FF084305D0012004E052
:100A500020463946BDE8F08D0020054346EAE076A1
:100A60002C4337430A986305E40AA0EB08000022F0
:100A7000FD0A44EA47540A3002D500200146E9E75E
:100A8000010510196941DDE9084500196941BDE812
:100A9000F04DA2E770B521F0004303430CD0C1F341
:100AA0000A550024D5EB040564EB0403D617AD1AF0
:100AB000B34102DB0020014670BD201841EB02511A
:100AC00070BD0000064C074D06E0E06840F00103F1
:100AD00094E8070098471034AC42F6D3FFF758FB70
:100AE0008CE20608CCE20608C0B24FF4F05100F0E8
:100AF00023BA00002DE9FF4F087883B09946FF28FC
:100B000005D0491C2D2804D00024002008E0002036
:100B10000BE00124F9E700EB800003EB4000491CE7
:100B20000B78FF2BF7D104B14042002302931478D5
:100B300019461D462D2C01D02B2C04D1521C2D2CD6
:100B400013D000240294AA461478FF2C0FD00A2553
:100B5000A3FB057801FB05814FF0000C03FB0C1192
:100B6000521CE3194AEB0101EEE70124EAE7814454
:100B700053EA010002D019F5C87F06DA0398002174
:100B8000C0E9001107B0BDE8F08F0025AE4E2F463A
:100B9000DFF8B882184600F0E3F9CDE90001B9F1B9
:100BA000000002DAC9F1000400E004460023A74A6D
:100BB0001AEB030B42EB045A12E0E00707D02A4677
:100BC000334638464146FFF79DFC074688462A468D
:100BD000334610461946FFF795FC05460E4664104D
:100BE000002CEAD1DDE90001B9F1000F5A46534665
:100BF00006DAFFF7F9FC3A464346FFF7F5FC05E055
:100C0000FFF780FC3A464346FFF77CFC029A0AB1A4
:100C100081F00041039AC2E90001B3E72DE9FF4FDB
:100C20001F468DB0D7E901464FF0FF382E204546CC
:100C30004FF000090B90B9696D1C0E988847396A0E
:100C4000824688470028F6D1BAF1FF3F0AD024F443
:100C5000D064002E11DDBAF12B0F08D0BAF12D0FA0
:100C60000BD102E0404611B08DE744F48064B969CD
:100C70006D1C0E9888478246761E6946600501D530
:100C80002D2000E02B208DF8000001F1010B0DF16B
:100C9000200809E0B9696D1C0E98884782460F98B4
:100CA00044F40074761E0560002E02DDBAF1300FA8
:100CB000F0D00B998A453ED144F0800406E00F99AC
:100CC000681CA9F1010944F400740860B9696D1C3D
:100CD000761E0E98884782463028F0D02BE00B997C
:100CE0008A4505D1200603D444F08004761E18E01E
:100CF00050461DF046F908B30DF11301761E44F479
:100D000000748B4508D2AAF130000BF8010B2006C5
:100D100007D5A9F1010003E0200602D409F1010082
:100D20008146A00502D50F99681C0860B9696D1C41
:100D30000E9888478246002ED1DC53E0002E51DD0C
:100D4000BAF1650F02D0BAF1450F4BD1A00549D5D4
:100D5000B9696D1C24F44074761E0E98884782464B
:100D6000002E0CDD2B2804D0BAF12D0F07D144F44E
:100D70008074B9696D1C0E9888478246761EE0051E
:100D800001D52D2100E02B2108F8011BCDF82C8086
:100D900021E00DF12901761E44F4007488450CD23F
:100DA000AAF1300010F0FF0088F8000002D10B9982
:100DB000884509D908F1010806E0E00501D5244875
:100DC00001E042F20F708146B9696D1C0E988847A8
:100DD00082460F980560002E04DD50461DF0D1F8C4
:100DE0000028D6D1F9690E988847FF208BF80000BB
:100DF00088F800000020069007904B466A4608A934
:100E000006A8FFF777FEA00502D46FF001002AE7DD
:100E100014F0240F0AD0E00714D1DDE90612386877
:100E2000031D3B600068C0E900120BE0DDE906012C
:100E3000FFF7E2FC0146E00704D13868021D3A6082
:100E40000068016028460EE7000014400000F03FF3
:100E5000F1D8FFFF426842B1016811F8013B23B1AC
:100E6000521EC0E90012184670470121C160881E59
:100E7000704742685AB1C368016843B983688B42BE
:100E800005D0491E521CC0E90012002070474FF0E7
:100E9000FF3070472DE9F04D00231A461B1A8A4196
:100EA00003DB00200146BDE8F08DC1F30A52C1F317
:100EB000130141F480154FF0000BD10702D1001847
:100EC0006D41521E0027044640F2FF11384601EBE7
:100ED000620A3E468046024600204FF48011FFF72A
:100EE000D5FCC2197141BB1846EB0100B4EB030CF1
:100EF00075EB000C04D3E41A65EB000517460E46AB
:100F0000241908F101006D4180463428E3DDF91908
:100F100046EB0600091BA84103D24FF0FF321346EF
:100F200001E0002213461BEB070046EB0A51BDE827
:100F3000F04DFFF752BD00007F2801D9002208E0E4
:100F4000064A02EB5002C007127800D1120902F0E3
:100F50000F0201209040084070470000002C060856
:100F60000EB540F2334202920022CDE90022134630
:100F7000FFF742FD03B000BD70B58D1810F8014BAE
:100F800014F0030201D110F8012B231106D110F83F
:100F9000013B03E010F8016B01F8016B521EF9D11F
:100FA000ABB110F8012B04F00C048A1A0C2C03D0FE
:100FB000A2EB84129B1C08E010F8014BA2EB042268
:100FC000F8E712F8014B01F8014B5B1EF9D5A94275
:100FD000D4D3002070BD000037B5446805460146F3
:100FE000204608F09FFC00285CD02B680F2B16D001
:100FF00004DC0B2B22D00E2B32D050E0282B47D014
:10100000B3F5107F05D0112B49D1274B1B6813B9BD
:1010100048E0264B1B6829462046984742E0204678
:1010200001F032FF02AB43F8040D426E156818461A
:1010300001F09CFFB5B32046A84733E0204601F0FD
:1010400023FF02AC0190683001F080FE54F8040DDB
:1010500003216C3001F087FE204601F087FF1EE07F
:10106000EA680CCA0D2A02D0202A06D010E0002B14
:101070000EDD20460EF01DFB05E0002B03DD2046B3
:101080000EF017FB0EE0022120460EF02AFB09E0CD
:10109000EB6823B94FF48071204608F029FC2846FC
:1010A00008F042FF03B030BD00DF0120ACCD0120CD
:1010B00010B586B0002404940B9C03940A9C0294FF
:1010C000099C0194089C009400F026F806B010BD1D
:1010D000F0B5B0F90C50B0F91070B0F90E600446DC
:1010E00087B01D44A369B0F90A000493B4F908302D
:1010F0000393638A029300238DE80A0010443B4661
:101100003246294600F008F86168054600F0BAF951
:10111000284607B0F0BD00002DE9F04186B09846A2
:1011200005460E46174603F029F8109C1A4B029309
:101130000D9B01934C340C9B0093039443463A4619
:101140003146284608F02CFE8046F8B101F09CFE9E
:10115000124E0F9905901022351D08F075FD06AF4F
:101160000FCD57F804ED0EF134040FC40FCD0FC4AA
:1011700095E80F0084E80F00736BCEF864303846B2
:1011800001F0F4FE736B40465B68984706F0F4F894
:10119000404606B0BDE8F081D90F0008ACCD012073
:1011A0002DE9F0418B4B826853F822504368052BA0
:1011B00088B004460ED006DC002B40F007810068A2
:1011C00009F0FAFE02E1062B00F08980122B00F0F4
:1011D000AA80FBE0EE69002E51D0AB6803936B68E8
:1011E00002932B680193009610300FC806F0BEFDE5
:1011F000002655F8260005F0DEFAEB69A2692169A0
:101200006069D21A1944304402F060FBEB69A269AC
:101210002169E069D21A1944801B02F057FBEB697F
:10122000E26961692069D21A1944304402F06AFD0A
:10123000EB69E2696169A069D21A801B1944013621
:1012400002F060FD022ED4D1A86805F0B4FAE96975
:1012500020696669E36942185B1A013A3144023039
:1012600002F0A2FDE969A2696669E369501A5B1A96
:10127000023A3144013002F097FDEE690FE055F873
:10128000260005F098FA04F110000FC89B1B921B72
:1012900031443044013602F06FFB022EEFD1616918
:1012A000E3692F69A26920690197EF6800970B44F1
:1012B000921B30445B10023102F0CEFA04F11401AB
:1012C0000EC92069AC69019419446C6900944910F5
:1012D000023B921B0131304402F0BEFA76E0006816
:1012E00001F0D2FD049020680AF06CFA049B30B142
:1012F000A26852B91A6F003218BF012206E05A6F75
:10130000002A0CBF0022022200E0002203EB82032D
:1013100004A8DD6E01F02AFE00231A462168284643
:1013200002F000F852E0006801F0AEFD08AED0F81F
:10133000688046F8100DB8F1000F44D0A368B0F9EA
:101340005C7023B1032B0CBF0223002300E00123B8
:1013500000EB8303406D1C6C05F05CFA204605F041
:101360002AFA06A802F0E0FDA98BBDF81C30BDF8F2
:1013700018205B1AADF81C30BDF81A300233ADF8F6
:101380001A30BDF81E30023BADF81E30049B0A44F3
:10139000ADF81820B3F95E10B3F9602006A804F088
:1013A0000CF8304601F0E2FD022005F09FFA4046BD
:1013B00001F06AFD08AC3A4644F80C0D06A902F0AB
:1013C000BFF8204600E0304601F0D0FD002008B014
:1013D000BDE8F08128BA060813B5044678B102F0DA
:1013E000CDFE204601F050FD02AB448E43F8040DC3
:1013F0001846C4F3002401F0B9FD05F0BDFF2046F6
:1014000002B010BD034B044A1A60044B5A6A58627A
:1014100010467047E0CD01202C010020B0CD012006
:1014200037B50D46044680B102F0A8FE204601F013
:101430002BFD02AB456543F8040D184601F096FDFF
:10144000204609F07CFA05F097FF03B030BD00009C
:1014500013B5044688B102F091FE204601F014FD58
:1014600002AB074A43F8040D4266184601F07EFDC0
:10147000204609F064FA05F07FFF02B010BD00BFFE
:101480001CBA060873B50D46044628B302F076FE72
:10149000204601F0F9FC866E00906846019601F046
:1014A00065FD294601A807F0E9F800280CBF0125D1
:1014B00000250ED0019B9E4208D0204601F0E4FC9E
:1014C000019B00908366684601F050FD204609F0BC
:1014D00036FA05F051FF00E00125284602B070BD44
:1014E00073B50D461646044690B102F047FE2046FD
:1014F00001F0CAFC022D01909CBF00EB8500066440
:1015000001A801F033FD204609F019FA05F034FF77
:1015100002B070BD2DE9FF470D460446002800F0DB
:10152000E98002F02BFE204601F0AEFC04AED0F8BC
:1015300058A046F80C0D90F85490D0F83480C76C41
:10154000304601F013FDBAF1000F03D029462046C2
:10155000D047CAE0122D00F0C48005DC102D3CD02D
:1015600009DC082D3BD057E01D2D43D01E2D3DD06A
:10157000132D51D114E0B8F1000F00F0B6804046B1
:1015800001F082FC04AE3946054646F8040D05F02C
:10159000DDFD0544284605F087FD2B46012214E0B9
:1015A000B8F1000F00F0A180404601F06DFC04AEE0
:1015B0003946054646F8040D05F0C8FD05442846A1
:1015C00005F072FD2B464FF0FF32014620460AF02F
:1015D00099FD304601F0CAFC87E0791E82E0002FB9
:1015E00000F08380791E204600F0FDF920460BF0C4
:1015F00001F87AE0204601F047FCB9F1010F0190B3
:1016000002D180F854A0E4E7012380F85430394631
:10161000204600F0E8F9DCE71F2D66DDB9F1000F88
:1016200002D020460AF0E6FF204601F02DFCB0F97A
:1016300038300290002B804616DD406B60B101F01F
:1016400023FC0DF1100949F8040D06F077FE06465B
:10165000484601F08BFC00E00646B8F938008642A7
:10166000ACBF0026012600E001260DF1100858F855
:10167000083D4046D3F84C9001F078FCAEB3ADB2D3
:10168000284605F031FD8246014620460DF048FF10
:1016900058B3204601F0F8FB466B0290404601F03B
:1016A00065FC304601F0F0FB0DF110084946064696
:1016B00048F8040D05F04AFD06443046FEF750FE9A
:1016C0003146421C06EB0A00FEF70BFE2946304667
:1016D00005F0D8FC404601F049FC0521204609F000
:1016E000E6F9791C204600F07EF9204609F027F93A
:1016F00005F042FE04B0BDE8F087000073B5446811
:10170000054620460AF05EF829460646204608F0BF
:1017100009F900286BD02B680F2B3FD004DC0B2B72
:1017200041D00E2B4CD05FE040F21312934203D015
:10173000B3F5107F21D057E0204609F0AFFA2046DC
:1017400001F0A2FB02AE46F8040D90F8563083F08B
:10175000040380F85630304601F008FC0021204692
:101760000EF09CF9204601F08FFB00210190D0F88B
:10177000840009F060FA30461FE0EB684BB11A7A3A
:101780002AB11968204600F09FF8012102E00221E9
:1017900000E00321204609F08AF925E001212046D6
:1017A0000EF07CF923E0204601F06EFB02AC44F819
:1017B000040D343001F0CAFA204601F0D7FB13E0E3
:1017C00096B1EB685A68002A0EDD1968A1F109028A
:1017D000192A05D8012303FA02F2064B13401BB95C
:1017E0002046FFF797FE02E0284608F09DFB02B076
:1017F00070BD00BF1300040310B586B0002405942B
:101800000C9C04940B9C03940A9C0294099C0194E4
:10181000089C009400F002F806B010BD2DE9F043DA
:1018200087B09046994605460F46129E02F0A6FCE8
:10183000139C234B0293603403940F9C0E9B0093E4
:1018400044F48054424601944B463946284608F0F9
:10185000A7FA804600282DD001F016FB194D1199EA
:101860000590102208F0F0F90FCD059F07F16004F4
:101870000FC40FCD0FC42B682360012387F85530A8
:10188000731C18BF0123002ECCBF36B2082687F880
:10189000883000237B877B633E8705A801F066FBC9
:1018A000711C40460DF028FC044618B9404608F06B
:1018B00077FBA04605F060FD404607B0BDE8F08329
:1018C000FD160008E4CD01202DE9F3410F46054641
:1018D000002853D002F052FC284601F0D5FA0190BE
:1018E000406B002845D001F0CFFA019B0090986E24
:1018F00004F090FF0646284608F044FD0446009890
:1019000002F064FB019A136E03F00303012B80467F
:1019100007D0022B0AD1221A013292FBF3F3FC1AF0
:101920000AE0231A546E01341C1B04E0D36A546E7F
:101930001B6801341C443C1B009806F0FFFC002C83
:10194000024601DA002108E0A04501DA014604E080
:101950002146009806F08EFC0146284600F043F828
:10196000684601F003FB304604F054FF284608F0B7
:10197000E6FF01A801F0FAFA05F0FEFC02B0BDE8AE
:10198000F08173B50E46054680B102F0F7FB28469C
:1019900001F07AFA02AC866644F8040D284608F095
:1019A000CEFF204601F0E2FA05F0E6FC02B070BD81
:1019B00037B50D46044698B102F0E0FB204601F031
:1019C00063FA02ABB5FA85F143F8040D490990F8C2
:1019D000544080F85410184601F0C8FA05F0CCFCC9
:1019E000204603B030BD13B50C4601F04DFA00900F
:1019F000406BF0B101F048FA019006F09FFC009BAB
:101A0000B3F9382093F8541024EAE474002918BF7D
:101A1000013A9442A8BF1446A042DA6CA8BF2046FF
:101A200082424FF0000218BFD8641A6501A801F085
:101A30009DFA684601F09AFA02B010BD2DE9F04710
:101A4000446886B00546204601F01EFAC76D009036
:101A5000D0F888A0D0F88060D0F86880B0F87C908A
:101A600007B13F68684601F081FABAF1000F09D06A
:101A7000DAF8043028469847002840F01A81DAF84E
:101A800000A0F2E72B68172B00F0898018DC0F2BE1
:101A900043D006DC0B2B00F0FA800D2B00F0BD804C
:101AA000FFE0112B1BD0142B40F0FB8001A9204636
:101AB00000F0A2FC02AB03CBEA6810605160F8E0D2
:101AC000262B6FD005DC1E2B7AD0202B00F0B380A4
:101AD000E7E02A2B13D0B3F5107F24D0E1E02046B5
:101AE000EE6801F0D1F901903389012B02BFB0F803
:101AF0007C3043F48073A0F87C3001A8CFE020460E
:101B000001F0C2F9EB68009013B1C0F8843002E034
:101B1000D0F88430EB6068463EE0002F00F0C180D2
:101B20002046B847BDE02046D5F80C8001F0ACF95E
:101B300006AFB0F87C6047F8140D384601F016FA8D
:101B4000EB68002B00F0B58098F80830CBB1330774
:101B500002D4204609F088F9204608F0E1F806F49E
:101B60008873B3F5887F40F0A48006F080039BB2B1
:101B7000002B40F09E8005224146204609F01CF9CA
:101B800097E0204601F080F9B0F87C30019023F412
:101B90008073A0F87C30384601F0E8F989E0C5F898
:101BA0000C8086E0EB68022B40F0838006A904934A
:101BB000272341F8143DA86803940AF00FF878E051
:101BC000EF68012F24D1304608F026FF58B1304687
:101BD00009F04AF9304608F0EBFD88B13946304645
:101BE00007F045FF0CE0404609F092F90646204612
:101BF00001F04AF90090C0F88060684601F0B6F93B
:101C00000121204600F0E7FA002E52D1EE6050E0AC
:101C10005146204600F0DFFA4BE019F0080F40D1A2
:101C2000EB68DB68002B3CD01B7A002B39D02046B8
:101C300009F01AF935E0EE689EB32146706809F0A4
:101C4000A7FD80B1012120460EF080FF214670687B
:101C500009F08DFD28B3204601F016F906AB726835
:101C600043F8140D0FE0514620460EF06FFF214659
:101C7000306809F07CFDA0B1204601F005F906AB03
:101C8000326843F8140DC0F88020184607E020465B
:101C900001F0FAF80090703001F058F8684601F051
:101CA00065F92946204607F03DFE10B1284608F0A8
:101CB0003BF906B0BDE8F08710B588B00024069463
:101CC0000F9C05940E9C04940D9C03940C9C029410
:101CD0000B9C01940A9C009400F024F808B010BDFD
:101CE000F0B5B0F90C50B0F91070B0F90E600446C0
:101CF00089B01D44A369B0F90A0006930E9B0593B1
:101D000063680493B4F908300393638A0293002351
:101D10008DE80A0010443B463246294600F002F89E
:101D200009B0F0BD2DE9F0478AB00E46DDF84C90C1
:101D300098460546174602F021FA189C394B029343
:101D400049F4805301936034129B0093314603940D
:101D500043463A46284608F023F8064600285BD05A
:101D600001F092F8DFF8C4A015990490302255468E
:101D700007F06AFF0DF128080FCD58F8187D07F11C
:101D800034040FC40FCD0FC495E80300179B84E8FB
:101D900003007B66149BA7F87C300024DAF8283017
:101DA000FB65C7F88040FC66C7F88840404601F0F4
:101DB000DDF805A9304600F01FFBBDF91A10BDF98A
:101DC0001800BDF91E30BDF91C200394164C029476
:101DD0005B1A121A41F282740132019401330096A7
:101DE00007F0DEFFDAF8283004465B683046984793
:101DF000304601F049F804908466404601F0B6F898
:101E000042F2040309EA030313B9304608F05AF911
:101E10001699304600F05BFA05F0AEFA30460AB08B
:101E2000BDE8F0873D1A00082D27000808CE0120E4
:101E30002DE9F041044690B0006800F0B5F9A54BDB
:101E4000666803F12C05002818BF1D461C2E00F201
:101E5000A281DFE816F08D01A001A001A001A00180
:101E60002701A001A001A001A001A0012700A0015D
:101E7000A0017A01A001A001A0014101A001A001DF
:101E800023001D001F002100A001A001A0012500CA
:101E9000EE6985E12E6A83E16E6A81E1AE6A7FE1D7
:101EA0006E697DE11C2320680893079000F0ECFF29
:101EB000036D059007A89847064605A801F056F857
:101EC000012E11DDAB6802936B6801932B680093C0
:101ED0006269A1692069334605F08EFE2769A3690E
:101EE0003744C6EB03082CE0286804F064FC216941
:101EF000EA6960690A44013A01F0E8FCA269E9690B
:101F00006069511A013101F0E1FC6769206901370C
:101F1000394601F009FD3946A06901F005FD686800
:101F200004F049FC20693946013001F0FDFCA0694C
:101F30003946013801F0F8FC2769A3690237A3F19B
:101F40000208286804F037FC42463946606901F00F
:101F5000BDFC686804F02FFC6069424639460130D8
:101F600001F0B4FC6B6A022B0ADDA86804F023FCC4
:101F700061696B6A0B44013B4246023138461CE002
:101F80002A6A96421BDA67692369012E07F1020863
:101F900040F303813744F0181A44013A3B46414666
:101FA00001F002FFA369E869012EA3EB0000CCBF9A
:101FB0009A1B9A1E41463B46013001F0F5FE6369CB
:101FC000E7692868012ECCBFF6189E1C013F04F07B
:101FD000F2FB3A463146206901F094FE3A4631461A
:101FE000A06901F08FFEE769686804F0E4FB2069EE
:101FF000023F3A463146013001F084FEA0693A467C
:102000003146013801F07EFEEB69022B02DC2B6ABF
:10201000022B1FDDAB6AE769A868022BCCBFFF1A51
:10202000023F04F0C8FBEA69022A07DD2069024486
:102030003B46013A3146023001F0B6FE2B6A022BD4
:1020400008DDA269E869101A3B46023A31460130C0
:1020500001F0AAFE286804F0AEFBA2692169E069DC
:1020600001F034FC686804F0A6FBA2692169E0690C
:10207000013A0131013801F029FCAE6A022E40F329
:102080008A80A2692769E469A868A2F10208023778
:1020900004F091FBA11BA31E42460131384601F01A
:1020A00083FE78E0B4F91000B4F91410B4F91820E4
:1020B000B4F91C302C690194EC680094ADF81C0054
:1020C000ADF81E10ADF82020ADF8223001F0C4FBB1
:1020D00061E000BF48CE01206369298BADF81E3056
:1020E000A369226920685B1A0A44ADF82030E369CD
:1020F000ADF82230ADF81C2000F0C6FE036F05904D
:10210000FBB1022004F0F2FB059AB2F87C30C3F375
:10211000C0030E3302EB8303986804F04CFB059B6D
:10212000586B04F077FB059B186F00F0ADFE059B24
:102130000690B3F95A2007A901F002FA06A800F0A8
:1021400015FF05A800F012FF25E02369ADF81C304B
:102150006369ADF81E30A369ADF82030A868E36963
:10216000ADF8223004F027FB07A801F047FE12E08B
:10217000206800F089FE10ABB0F85A2043F82C0D0F
:1021800042F00C02A0F85A20184600F0EFFE20683A
:1021900008F012FF04E0002602E0981C4746FBE628
:1021A000304610B0BDE8F08113B5044680B101F0AF
:1021B000E5FF204600F068FE02ABB0F87C4043F833
:1021C000040D1846C4F3C00400F0D0FE05F0D4F8A6
:1021D000204602B010BD38B50D46044648B101F0A6
:1021E000CDFF294620460EF0B1FCBDE8384005F091
:1021F000C3B838BD37B50C46054688B101F0BEFFFF
:10220000284600F041FE836C0190A34203D0846411
:10221000806E08F094FB01A800F0A8FE05F0ACF871
:1022200003B030BD074B084A10B513601861074A68
:102230000C3393E80300D469183282E80300204687
:1022400010BD00BF34CE012030CE012008CE0120C9
:10225000024BB3F92620D8841046704708CE0120DF
:102260002DE9FF4104460F4601F088FF54B3204694
:1022700000F00AFEC36D03909D6800F033F9064636
:1022800004A850F8043D5F6300F070FE2B68012144
:10229000204698472B6807460321204698472B681D
:1022A00000218046204698470546204600F007FA60
:1022B0002046009543463A46314600F08BF92046C9
:1022C00008F03DFB05F058F804B0BDE8F08137B5E3
:1022D0000D460446E8B101F051FF204600F0D4FD60
:1022E000036F00906846019300F040FE294601A864
:1022F00006F0C4F958B1204600F0C6FD019B0090DD
:102300000367684600F032FE204608F018FB05F02F
:1023100033F803B030BD37B50D46044698B101F02F
:102320002DFF204600F0B0FDB0F95A300190AB42CD
:1023300004D0A0F85A50204608F001FB01A800F094
:1023400015FE05F019F803B030BD37B50D4604464B
:1023500088B101F013FF204600F096FD02AB056442
:1023600043F8040D4564184600F000FE204608F0CE
:10237000E6FA05F001F803B030BD2DE9F0430E4652
:1023800085B0044698B301F0F9FE204600F07CFDCC
:10239000B0F954500390B54223D000F0A3F8039B4A
:1023A000A3F85460DB6D9E68074633680121204620
:1023B00098473368804603212046984733680021B8
:1023C0008146204698470646204600F078F9204688
:1023D00000964B464246394600F0FCF8204608F08D
:1023E000AEFA03A800F0C2FD04F0C6FF00E0054607
:1023F000284605B0BDE8F0832DE9F04F87B00646CA
:10240000894600F041FDC26D039094680121226865
:102410003046904722680321804630469047226824
:10242000022183463046904722680021824630468A
:1024300090470090039809F037F80546039809F093
:102440003AF807460398448E04F02004A4B20CB175
:10245000B0F9584000F046F803990246C86E18B12A
:10246000019207F0ABFF019ABDF80010A9F8002017
:1024700092B21444013D0C44A9F80E10CBEB050BAD
:10248000013F01391144A9F802000FFA88F80FFA48
:102490008BFB2044CAEB070AA9F80600A9F8121022
:1024A000A9F80480A9F808B0A9F80AA0A9F80C8036
:1024B000A9F810B003A800F059FDB9F90C20049256
:1024C00006AAB9F9101042F8041D304604A900F01C
:1024D0003CF8049AA9F80C20059AA9F8102007B036
:1024E000BDE8F08F08B5438E03F020039BB202468F
:1024F0003BB1B0F9540028B9506B01F09DFD02309A
:1025000008BD184608BD70B58AB006460C4600F0F6
:10251000BBFC0AABC26D43F8280D1846956800F065
:1025200025FD0196032C0BD8DFE804F00204060811
:10253000182304E0162302E0152300E0172302937A
:102540006B6801A898470AB070BD2DE9F743814632
:102550000D46164600F098FC034602A8DA6D40F8D6
:10256000083D9768B3F90040B3F9028000F0FEFC23
:102570003B680021484698470746484607F07CFEDE
:10258000814620B3484600F07FFCB0F9023001904C
:10259000C8EB03039F4213D1836A1B0608D5B0F929
:1025A000003032681B1B93420ADC013B336007E0BA
:1025B000B0F904302A681B1B9342A4BF01332B607F
:1025C00001A800F0D3FC484607F093FED8E703B01B
:1025D000BDE8F0832DE9F04F85B093460C460546E3
:1025E0009A4600F051FC04AFC36D47F8080D9E6891
:1025F000FFF778FF8146384600F0B8FC33680121C8
:102600002846984733680321074628469847336889
:102610008046002128469847A145034606D15F45DC
:1026200004D1D04502D10E9A904245D0284601935C
:1026300007F022FE019B0E9A00269B1AC4EB0904A8
:102640000546B1460193CBEB0707C8EB0A089DB3DB
:10265000284600F019FC836A039003F42073802B52
:1026600002D0B3F5007F1FD124B12246214628466F
:1026700008F05DFA039B9B6A1A0608D504FB1981D2
:10268000019A284608F004FA09F1010AD146039B91
:102690009B6A9B0508D504FB0671019A284608F041
:1026A000F7F906F1010A564603A800F05FFC284638
:1026B00007F01FFE0546CAE705B0BDE8F08F70B50C
:1026C00086B0064600F0E0FB06AB846E43F8180DBA
:1026D000C56E184600F04AFC04B92DB301A9304676
:1026E000FFF78AFEACB1BDF90A20BDF908102046FB
:1026F00008F09EF9BDF90E30BDF90A20BDF90810A9
:102700009A1ABDF90C30591A01320131204608F0ED
:1027100077FC4DB1BDF90A20BDF90630BDF90810AE
:10272000D21A284608F084F906B070BD2DE9F043AE
:10273000456887B00446284607F0E8FD814600F06A
:10274000A3FB034606A85F6E40F8143D9E6CD3F8C9
:10275000808000F00BFC2368172B52D009DC0F2B74
:1027600014D002DC0E2B33D045E0143B012B48D9AA
:1027700041E01F2B27D002DC1E2B19D03BE0222B7F
:1027800037D0312B37D10023E3603DE06FF0704349
:102790009E4204D0304606F021FD00F069FC9FB354
:1027A00094E80F0002AE86E80F000395304626E05D
:1027B000E3684BB3B8F1000F17D0454515D040463C
:1027C00008F052FB20E02146484607F0ABF81BE03A
:1027D000E3685A68002A0EDD1B68092B05D00A2B16
:1027E00009D1284608F0C6FB0EE0284608F090FB09
:1027F0000AE0E66008E027B1C4F804902046B84734
:1028000002E0204607F090FB07B0BDE8F08300002F
:102810002DE9F041D0F80C8086B0044600200E4629
:10282000174603F0EBFF0546B8F1000F05D098F806
:10283000043013B140F0020001E025F0020003F083
:10284000DDFF216969B1012063882288039002902D
:10285000E0680190A06800900C6830463946A047B7
:102860001FE0DFF85080124BD8F800201B68527C24
:10287000E06821469847E18820B9012904BFD8F8CB
:102880000030986B638822880590A0680490A08827
:10289000029101210390019100913046394606F0E2
:1028A0005BF8284606B0BDE8F04103F0A7BF00BFC3
:1028B000040100201401002008B50E4B186803F035
:1028C0006FFF0D4B186803F076FF012003F0F0FF57
:1028D000002003F0FBFF002004F008F8002003F0C4
:1028E0008DFF064B186803F095FF0020BDE80840F7
:1028F00003F0B0BF100100200C01002008010020EF
:102900004D4B2DE9F04F1A68D169CC69A3898342F8
:102910008BB008D8E589854205D325680695C31A8A
:102920004FF0FF3613E0A368002B7CD01D88A8422F
:1029300079D35E88864276D35B6866680696401BCC
:1029400080B203EB800533F92030B5F902600993BA
:10295000581C68D091F818B0B2F92A90A17C364D75
:10296000B2F92270B2F9248094F810A01BFB01F395
:102970004846079306F082FC2968079BCA69896B61
:102980000591089006991846099B00FB03100490D6
:10299000A37C039301230293D37E0193937E009340
:1029A00052465B464146384605F0D6FF731C1AD0A6
:1029B00049F0020006F062FC2A680699D369926B1E
:1029C0000592079A02FB06160496A27C0392012246
:1029D0000292DA7E01929B7E009352465B4641460C
:1029E000384605F0B9FF2B68DB695A7E1B7E9A4298
:1029F00015D9B9F1020F12D089F0040006F03EFC9F
:102A00000D4B1B68DB69187ED97E9A7E5B7E00FBCE
:102A1000018143440AFB0272384606F031F99DF801
:102A2000200006F02BFC044B617C1A68538C0B448D
:102A300053840BB0BDE8F08F14010020044B1B68D9
:102A4000DB69DB6909B11A7C0A60587C704700BFFA
:102A50001401002002230B807047C3699A898A42BF
:102A600002D8DA898A420FD2986880B103889942E5
:102A70000CD342888A4209D3C91A436833F821002B
:102A8000C043C0F3C030704701207047002070473A
:102A90002DE9F04F384C2368B3F92A80DB6989B0FF
:102AA00006460146D86900F092F8002860D00588F3
:102AB0004768751B07EBC506404696F802A006F06E
:102AC000DDFBD4F800C017F83520DCF81CE0DCF89A
:102AD00038309EF818B0BCF924108146BCF92200A9
:102AE0000593736804934FF0010CCDF80CA0CDF85A
:102AF00008C09EF81BC0CDF804C09EF81AE0CDF8BF
:102B000000E05B4605F028FF2368DB69597E93F8F7
:102B100018A00791514520D9B8F1020F1DD093F8A4
:102B20001BB001F005FA804601F0CCF903F043FE3A
:102B300023680799B3F924E0B3F92200DB6917F899
:102B40003550DA7E0BFB01E305FB02020BFB0AE1C9
:102B500006F096F8404603F02EFE484606F08EFB3F
:102B600023687178DA69907E5A8C00FB01225A84BE
:102B700009B0BDE8F08F00BF1401002038B50D4B3F
:102B80001B68DD6902460C460146E86900F01FF843
:102B900070B10388D21A436803EBC2014878A97E5A
:102BA00010FB01F024B113F8323011FB03F3236062
:102BB00038BD00BF1401002001230B80704708B509
:102BC000C06900F004F8003018BF012008BD38B11A
:102BD00003888B4202D843888B4201D28068F6E793
:102BE000704700002DE9F047DFF86480DFF8589067
:102BF000DFF858A00025D8F800309D4217DAD9F840
:102C00000070DAF800107C266E43BC19231D742274
:102C10001846FDF766FB0022BA5104F10C02A261CE
:102C200004F10802E063226460640135E3E70CF01C
:102C30009DF9054B1A687C2303FB0020034B0430ED
:102C40001860BDE8F08700BF3CBC012014010020E3
:102C5000B4CE012070B50E4E0E4B0F4D304640F8ED
:102C60000C3F05F0F7FC2C687C235C43204600F009
:102C700087F80A4B306022461B68002198474FF0C6
:102C8000FF336B600EF084FEBDE870400CF06EB94F
:102C90003CBC01202DF80008B4CE0120C0CE01209C
:102CA00010B5044638B101F069FA204609F0E6F89B
:102CB000044604F061FB204610BD000073B50546D4
:102CC00001F05CFA2846FFF7EBFF064660B100F022
:102CD000DBF802AC074B44F8040D1B682A460021C0
:102CE0009847204600F042F904F046FB304602B017
:102CF00070BD00BFC0CE0120024B21F0030118605F
:102D00005960704794DD012010B5044680B101F090
:102D100035FA084B5B6B03EBC4035968486809F04C
:102D20005BF820460DF010F9BDE8104004F024BB1C
:102D300010BD00BF00BD012028B1034BDA6B02605B
:102D400002B15060D863704700BD012010B5044641
:102D500001F014FA2068FFF7D7FF00232360BDE8D5
:102D6000104004F009BB70B506460D460024AC4285
:102D700005DA06EB8400FFF7E9FF0134F7E770BDE1
:102D80002DE9F0410746264E03370CF07FFA27F075
:102D90000307306CF26B0437874238BF074614468E
:102DA00034B154F8043C9F4223682CD01C46F7E70A
:102DB000F368B26B02EB030858F8045CC5EB080536
:102DC0002B6833B120460DF043FE58F8045CC5EB88
:102DD00008052B680BBB6B689F421EDC28461C1D38
:102DE0000DF016FEF3686868DB1BF3607369E41B83
:102DF0003B44C01B2C44736102D0294608F0ECFF11
:102E000044F8047C09E00BB161685960616801B164
:102E10000B60A24201D12368F3632046BDE8F08134
:102E200000BD012008B50CF031FA0C4A00239918B6
:102E3000D1F8BC0010B1836800200BE0083B13F10F
:102E4000800FF4D108E05A689B68904238BF104662
:102E500013B19B68002BF6D10C3808BD00BD0120D2
:102E600030B1044B5B6B03EBC000436858680C380F
:102E7000704700BF00BD0120024A9369013393618E
:102E8000704700BF00BD0120054BDA690132DA61ED
:102E90005A6B12F83030013302F8303000F07EB84F
:102EA00000BD012073B5044608460D46FFF7F8FE45
:102EB000064618B314B32046FFF7D2FF8542A8BFD9
:102EC000054601F05BF93046FFF7DEFF0090204633
:102ED000FFF7DAFF2A4602AD0A4B0190014655F88A
:102EE000080D1B689847284600F040F801A800F03C
:102EF0003DF82046FFF708FF04F03EFA304602B0E6
:102F000070BD00BFBCCE012010B501F037F9FFF74E
:102F100089FF0A4BB0F5800F8CBF1B6A1B6A4FF00C
:102F2000640487BF90FBF4F003FB00F45843B0FB4C
:102F3000F4F404F021FA204610BD00BF00BD0120CA
:102F40001028054A05D953685B08984228BF1846DF
:102F500000E010209060704794DD0120024A9369E0
:102F6000013B9361704700BF00BD012030B503688D
:102F7000094953F8085C4C6B14F83530012B03D920
:102F8000CA690AB1013ACA61013B04F8353000232D
:102F90000360184630BD00BF00BD0120034B5B6BD2
:102FA00003EBC00040680830704700BF00BD01203F
:102FB00050F8080C70470000F8B5144606460D4658
:102FC00001F0DCF8204600F0BFFF154F142348B194
:102FD00003FB047463689A685968AA1A711A03F0AB
:102FE00029FC18E003FB0473DA68B24202D11B69C2
:102FF000AB4210D0142303FB0473586930B15B68F3
:103000009A685968AA1A711A03F03CF9142303FB51
:103010000474E6602561BDE8F84004F0ADB900BF76
:103020003CDF0120C3B2CAB29A1A92B210B514B2F0
:10303000002CBCBF524214B2C0F30723C1F30722D5
:103040009B1A9BB2090C1AB2C1EB1041002A89B23B
:1030500008B2BCBF5B421AB20028BCBF494208B2EA
:10306000524304FB042280B200FB002010BD00008C
:1030700010B50021084600F0F3FF044943F6FF7342
:103080001A460846BDE8104000F002B801C0FFFF34
:103090002DE9F34116461F4604460D4601F06EF831
:1030A000042006F0EBF8144B1B69DA6C1B6D8046AC
:1030B00014441D4416441F446846ADF80040ADF862
:1030C0000460ADF80250ADF8067008F0FBF938B9AD
:1030D000404606F0D3F804F04FF902B0BDE8F081A5
:1030E0003B4632462946204605F0CAFD08F0F2F874
:1030F0000028F5D1ECE700BF04010020B0F906304C
:10310000B0F90420B0F90210B0F90000FFF7C0BF19
:103110002DE9F3470546884614461E4613B907F0C5
:103120006FF8064600940B9B2C680A9A3146284695
:10313000A0470446002840D007F055F8698A0746A2
:10314000204606F094FC204607F096FF384607F02C
:1031500093FF4FF0000908F1FF38B8F1000F12DDBE
:1031600055F81CAFCDF8009000231A463946284682
:10317000D047824620B9204606F012FF50461DE097
:1031800007F07AFFE7E71D21384607F0BAFD731C08
:1031900013D000F0F3FF07F07DF850B1FFF7FEFE0B
:1031A0008069844207D00028F8D1204607F0B0FE9D
:1031B00001E0A642F9D104F0DFF8204602B0BDE8F4
:1031C000F0870000012BF8B506460D4617461C4651
:1031D00001DD0020F8BD1C20FFF7D2FD0028F8D04B
:1031E0000DB1056109E0094B53F8241029B10B68B2
:1031F0000BB11946FBE70B6903610023836084610F
:103200008782C66003604360F8BD00BFACDF012069
:1032100038B51D46FFF7D6FF044648B100F00EF85A
:10322000E3681B6823B9034B16351B6843F8254038
:10323000204638BD14010020FFF77EBD30B508B927
:10324000012030BD8469012CFADC1B4B1A789442B2
:10325000A4BF621C1A70194A52F8243015461BB9D3
:1032600042F82400184630BD5A680AB11346FBE7FD
:10327000C2681268D9680968914203DD1B68002B97
:10328000F8D1DDE709D1818A012906D1196821B178
:103290000B46C96809688A42F8DD5A6812B11060A5
:1032A000426001E045F824005860984208BF0023BE
:1032B0000360002030BD00BFCCBD0120ACDF012089
:1032C00010B520B10468FFF7B9FF2046F9E710BD3B
:1032D00081690A4A52F821309842036804D142F8C1
:1032E00021300BB100225A60426802B113600368BA
:1032F00003B15A600023036043607047ACDF0120D4
:1033000000207047012809DC054B53F8200020B14C
:10331000C3681B681BB10068F9E77047002070475D
:10332000ACDF01202DE9F3410E46174698460546CD
:1033300070B1FFF7A9FD044602A8236840F8044DC8
:103340001C68FFF713FE43463A4631462846A0471D
:1033500002B0BDE8F08100002DE9F84305460EF00B
:1033600011FBDFF85880DFF8589005440EF00AFB97
:103370002E1A002E1FDD00F0EDFCD8F800309E4222
:10338000A8BF1E4600F0FAFED9F80040FFF774FD12
:1033900027461FB103F0F0FF013FFAE730460EF079
:1033A000E7FA1CB100F0EAFE013CFAE7FFF7D6FDB0
:1033B00003F0E2FFDAE7BDE8F88300BF2001002058
:1033C00040BC01202DE9F04F054685B0002800F0F3
:1033D0008480434C00F0D2FE00F0C0FD2368074615
:1033E000B3F9228000F00AFE2268938C86B29B1B00
:1033F0009384A1462B78002B61D047F6FF712846B5
:1034000004F080FF01468246284604F04BFF226804
:10341000938D03F00303012B04D0022B04D190FB06
:10342000F3F302E0034600E00023518CCB1A9BB279
:1034300019B21FFA80FB5184ADF80810B2F92420AC
:10344000ADF80A200BF1FF310B44ADF80C30013A16
:10345000BBB21A44ADF80E20514602AA2846019389
:1034600004F0E2F92268BDF80A109184284651461A
:1034700003F06CFE2A5C019B0A2A05EB000E01D0CA
:103480000D2A12D12268918D01F003010139012921
:103490008ABF118CA2F8228051849EF800100A295C
:1034A0000AD1918C0B44938406E0BDF80800D9F84A
:1034B00000308344A3F822B09EF8003053B923684B
:1034C0009A8C16449A8D9E8422F003029A8503F00A
:1034D00053FF02E00EF101058CE705B0BDE8F08F67
:1034E0001401002070B50E461546044600F046FE55
:1034F000054B1B6820465E849D84FFF763FFBDE893
:10350000704003F039BF00BF14010020F8B50B4B29
:103510001B680546B3F92C0040F002000E46174622
:1035200003F0D4F93A46044631462846FFF7DAFF5D
:103530002046BDE8F84003F0C9B900BF14010020DF
:1035400047F6FF73AFF300802DE9F3410C461746B1
:1035500098460646E0B100F011FE6CB1204607F037
:103560007BFD054648B102462146684604F032FF1D
:10357000684607F071FD00E0254643463A4621467D
:10358000304604F0A5F9284607F066FD03F0F4FE86
:1035900002B0BDE8F0812DE9F04F8BB00D46174623
:1035A00003930646002800F09A8000F0E7FDB5F985
:1035B0000030B5F904900193C3EB09030133B5F969
:1035C0000240B5F906B0029300F0C8FC17F00C08F1
:1035D00082461ED0039A0299304603F0D7FEB8F116
:1035E000080F05D0B8F10C0F09D0B8F1040F10D1B5
:1035F0000BF1010410FB0AF0201A04B209E0C4EB3D
:103600000B03013300FB1A30022390FBF3F0044458
:1036100024B2284607F020FD804688B1BDF804306A
:10362000ADF818300246294606A8ADF81A40ADF8A4
:103630001C90ADF81EB004F0CDFE06A807F00CFDFE
:103640001FFA8AF30493013B059307F00307039ADB
:103650000299304605F09CF8BDF80430ADF82030F2
:10366000059BADF822401FFA84FB5B44014682466D
:103670003046ADF82490ADF8263004F013FE012F4B
:1036800011D0022F04D09FB92B88ADF820300FE065
:10369000B5F90020B5F904309B1A181A013090FBD7
:1036A000F7F0104402E0AB880133181AADF820009F
:1036B000304608AA514604F0B7F83046039A0299FA
:1036C00005F05CF8049B064403EB0B04337824B24A
:1036D000002BBCD1404607F0BFFC03F04DFE0BB001
:1036E000BDE8F08F73B5064615460C4600F046FD62
:1036F000114B1B68DA6C1B6D1D443388ADF802500A
:103700001444013B2344ADF804307388ADF8004005
:10371000013B2B446846ADF8063007F0D3FE18B9DC
:1037200003F02AFE02B070BD2A4621463046FFF75C
:103730006FF807F0CFFDF2E71401002013B50A4639
:103740000146684604F078FF00F018FD234BBDF8F1
:1037500002101A68BDF80030B2F84C40B2F85000C0
:10376000BDF804202344ADF80030BDF80630014414
:10377000034422446846ADF80210ADF80420ADF8C9
:10378000063007F09FFE18B903F0F6FD02B010BD39
:10379000BDF90040BDF90430BDF902109C4209DCBE
:1037A000204605F013FA2046BDF9061005F00EFA82
:1037B0000234EFE70C46BDF906309C420BDC214693
:1037C000BDF9000005F002FA2146BDF9040005F03C
:1037D000FDF90234EFE707F07DFDD4E71401002086
:1037E0002DE9F04788B0044699468A46904600F095
:1037F000C5FC174B1D68EB6C286D1C4400EB0A05DB
:103800008144984406A8ADF81840ADF81C80ADF886
:103810001A50ADF81E9007F055FE20B903F0ACFD2C
:1038200008B0BDE8F0870B4E0127129B0293119B55
:103830000193109B009342464B462946204604972D
:1038400003960AF0A9FA07F045FD0028EDD1E5E757
:10385000140100207D8B00082DE9F04387B0044659
:10386000904699460D4600F089FC164B1B68DA6CB1
:103870001B6D14441D449044994404A8ADF81040B5
:10388000ADF81480ADF81250ADF8169007F01AFE9E
:1038900020B903F071FD07B0BDE8F0830A4E01279F
:1038A0000F9B01930E9B009342464B4629462046B0
:1038B000039702960AF0A6F907F00CFD0028EFD155
:1038C000E7E700BF140100207D8B00082DE9F341DC
:1038D000144F804616460C4600F050FC3D682A6D99
:1038E000EB6C08EB02051C441E4468462BB2ADF895
:1038F0000040ADF80460ADF80230ADF8063007F0D6
:10390000E1FD20B903F038FD02B0BDE8F0813B686D
:103910005B6E32461B6829462046984707F0DAFC62
:10392000EFE700BF1401002073B5124E04460D46A8
:1039300000F024FC3368DA6C1B6D14441D4423B280
:10394000ADF80430ADF8003068462BB2ADF8063063
:10395000ADF8023007F0B6FD18B903F00DFD02B066
:1039600070BD33685B6E29465B682046984707F058
:10397000B1FCF1E7140100202DE9F74306461F468C
:103980008846914600F0FAFB1E4B1C68206DE56CE2
:10399000247E013CA4B22E44331B4D448044074492
:1039A000ADF800306319ADF804306846C4EB080385
:1039B0003C44ADF80230ADF8064007F083FD20B975
:1039C00003F0DAFC03B0BDE8F08308F1010407F16D
:1039D000FF392A464146304605F0D0F82A46394696
:1039E000304605F0CBF84A462146304605F01EF930
:1039F0004A462146284605F019F907F06BFC0028D5
:103A0000E7D1DDE7140100202DE9F04F93B08046A7
:103A10001D9D1C9C012D0F461646994603D100940E
:103A200000F0B6F8AFE000F0A9FB584B1B68DA6C69
:103A30001B6D08EB020B07EB030A06EB020809EB10
:103A4000030510A8ADF840B0ADF84480ADF842A031
:103A5000ADF8465007F036FD10B903F08DFC92E04A
:103A60006300059304FB04F309931D9BE31A06937B
:103A70005B430A93CAEB050301330D93CBEB0803B9
:103A80000E931D9B002B78DD0D9B059A934274DBF2
:103A90000E9B01339A4270DC04EB0A03049304EB9F
:103AA0000B030B932B1B2746CDF80CA00C93039B09
:103AB000049A93423ADA099B07FB07F6981B04F035
:103AC000CBFE069BBB42814606DD0A9B981B04F099
:103AD000C3FEC0EB090600E006460B9B0399C9EB49
:103AE00003039A19013A184607920F9305F046F816
:103AF0000C9B079A3B44194608930F9B184605F008
:103B00003DF8C4EB08029144C6EB090601364A466B
:103B10000399304605F032F84A460899304605F0D8
:103B20002DF8039B01330393013FC0E71D9B04EB7A
:103B30000B06C4EB080753443046013B3A46514656
:103B400005F09EF81D9BE91A30462B463A46013196
:103B500005F096F81D9B04992E1B03EB0B02013A0E
:103B60003346584605F08CF81D9B0499C3EB0800BA
:103B700042463346013005F083F807F0ABFB0028DE
:103B80007FF47FAF69E713B0BDE8F08F1401002028
:103B90002DE9F04F8FB082461E4689469046189C0C
:103BA00000F0ECFA564B1F68FD6C386D05EB0A030C
:103BB000019300EB0903029305EB08030393BDF89F
:103BC0000430ADF83030BDF80C30ADF83430064478
:103BD000BDF80830ADF832300CA8ADF8366007F00B
:103BE00071FC20B903F0C8FB0FB0BDE8F08F630093
:103BF000059304FB04F30893029B234406930133CB
:103C00000793029B059AF31A0133934273DB019ADF
:103C1000039B9B1A059A01339A426CDC019B029F1D
:103C200023440993039B1B1BA1464FF0FF350A93C6
:103C3000069B9F4243DC089B09FB193004F00CFEF5
:103C4000099B0490C0EB030B451B0A9BC4EB0608C1
:103C5000012D03EB000AC8441CDD0BEB0503013BFF
:103C6000C5EB0A051A463946584601350B9304F050
:103C700085FF52463946284604F080FF0B9B41469B
:103C80001A46584604F07AFF52464146284604F048
:103C900075FF0FE03946584604F098FF3946504604
:103CA00004F094FF4146584604F090FF41465046C8
:103CB00004F08CFF013709F1FF39049DB8E7019B3F
:103CC00002991D19039B1F1B0135013F28463A46E7
:103CD00004F054FF2846351B3A463146013D04F0B6
:103CE0004DFF2A460799019804F0A0FF2A4607993C
:103CF000039804F09BFF07F0EDFA002881D171E7EB
:103D00001401002073B5044616460D4600F036FA3D
:103D10000F4B1A68D36C126D1C4423B21544164421
:103D20006846ADF80030ADF80430ADF80250ADF89B
:103D3000066007F0C7FB18B903F01EFB02B070BDA8
:103D400032462946204604F071FF07F0C3FAF2E735
:103D50001401002010B5002400F006F808B1012479
:103D6000FAE7204610BD00000C4B10B51C681CB1D2
:103D7000A047041C18BF012406F0B8F9084B1B68C3
:103D8000002818BF01241BB19847002818BF012440
:103D9000044B1B6803B19847204610BDDCBD0120D1
:103DA000C4DF0120D8BD0120F7B5044616461F46E2
:103DB0000D4600F0E3F9104B1B68DA6C1B6D1444E0
:103DC0001D4416441F446846ADF80040ADF8046039
:103DD000ADF80250ADF8067007F074FB18B903F0A7
:103DE000CBFA03B0F0BD3B4632462946204604F0EC
:103DF00047FF07F06FFAF1E714010020B0F9063031
:103E0000B0F90420B0F90210B0F90000FFF7CCBF00
:103E100013B50B4630B1C488818800928268204671
:103E200000F002F802B010BD30B50428039D27D081
:103E300010DC012818D0022838D1694302EB930224
:103E40006FEA4300525C00F0060022FA00F000F036
:103E5000030030BD10281DD0202821D0082825D1EE
:103E600005FB0121C85C30BD694302EBD302D84396
:103E7000525C00F0070022FA00F000F0010030BDB3
:103E800002EB53026943DB07505C4CBF00F00F00AC
:103E9000000930BD4C1005FB043332F8130030BD6F
:103EA0008C1005FB043352F8230030BD002030BDD8
:103EB000034B53F82000C36808219B6A184700BFD2
:103EC000ACDF012010B500F059F904F009FF04F04F
:103ED000FBFF044603F050FA204610BD10B504461F
:103EE00000F04CF9054B1B68DB6900215B6820463C
:103EF0009847044603F040FA204610BD1401002004
:103F000038B504460D4600F039F9064B1B68DB69ED
:103F100029465B6820469847044603F02DFA204660
:103F200038BD00BF1401002008B106F039B9704750
:103F300010B500F023F904F0DBFE04F0C5FF0446E1
:103F400003F01AFA204610BD01289ABF024B53F81D
:103F500020000020704700BF00BC012010B500F019
:103F60000DF9044B1B68DB695C7E03F005FA204603
:103F700010BD00BF1401002070B504460E46154662
:103F800000F0FCF820462A46314604F01BFF0446A8
:103F900010B1002333602B6003F0EEF9204670BDB2
:103FA00038B505460C4600F0E9F8064BB3F9003089
:103FB0002B60054BB3F900302360BDE8384003F0B7
:103FC000DBB900BFA2DF0120C4BD012010B504464B
:103FD00004F0B4F901462046BDE8104004F062B98F
:103FE0000DF0D0BC04483523037034238370C370B4
:103FF00061230371704700BFFB00002010B500F083
:10400000BDF80C4B1A68938D03F00C03082B07D0F6
:104010000C2B05D0042B07D1D3691C7E013C04E096
:10402000D3691C7E640800E0002403F0A5F9204653
:1040300010BD00BF14010020027EC07E50437047B7
:10404000024B53F820301B6918687047ACDF012021
:10405000024B53F820301B6958687047ACDF0120D1
:1040600038B505460C4600F089F8044B1B685D84A2
:104070009C8403F081F9002038BD00BF14010020AA
:1040800090B583B000AF344A334B1B6823F0010373
:104090001360324B01221A6000BF304B1B68002BAB
:1040A000FBD12F4B2F4A1A602D4B1B682E4A93428F
:1040B00000D0FEE703F09CFA2C4B2E221A700DF074
:1040C00065FC2B480BF0A2F80DF040F8786004F086
:1040D000A3FE0346002B0CBF01230023DCB204F037
:1040E000AFFE0346002B0CBF01230023DBB22343AA
:1040F000DBB2002B09D004F098FE044604F0A9FEC0
:1041000003461946204605F0B3F80021002002F0CE
:10411000AFFB06F05BFBFEF765FD164B1B68002B43
:1041200012D00DE0134B1B681B68002B03D0114B02
:104130001B681B6898470F4B1B685B680D4A136030
:104140000C4B1B68002BEDD10B4B01221A707B68C6
:1041500018460C37BD4690BD002000E008300240F4
:1041600000300240C2A507F4CDB5E8B5A0DF0120BC
:1041700030BB0120A8BB0120A8DF01202DE9F041C0
:10418000194C636823B10DF0F9FBA368984204D081
:104190000DF016FC0DF0F2FBA0606368DFF84880BC
:1041A0000133012B63601CD10AF0E0FE0F4A536813
:1041B00098420746164614D0002B11DBD8F8005061
:1041C0007C2404FB0355FFF79BF8D8F80030A86760
:1041D00004FB0734064BA06F221D1A60FFF770F82E
:1041E0007760BDE8F08100BF3CBC0120B4CE012067
:1041F0001401002013B5044618B9104B1B681C6E3F
:10420000D4B1FFF7BBFF2046FEF73EFE02AB446988
:1042100043F8080D1846FEF7A9FE5CB12046FEF7EC
:1042200033FE02AC836844F8040D9B68984720462F
:10423000FEF79CFE03F0A0F802B010BD14010020B0
:10424000014A114600F002B801F0FFFF2DE9F043EA
:104250000C4685B015460646002845D0FFF78EFF70
:10426000002002F0CBFA224B1B6807463046D3F8F9
:104270006080FEF709FE03680190986902F074FA05
:10428000019A1C4B9C42138904BFB2F90440B2F955
:104290000650ADF80840013B2344ADF80C3053897B
:1042A000ADF80A50013B2B448146ADF80E3005F0C5
:1042B000E7FC01A8FEF75AFE02A807F003F958B977
:1042C000484602F051FA404600F0C8FA384602F07B
:1042D00095FA03F051F807E02A462146304600F0EF
:1042E0009BFC06F0F7FFEAE705B0BDE8F08300BFEE
:1042F0001401002001F0FFFF2DE9FF470C9D074648
:104300009A4688469146FFF739FF194B1B68587C3F
:10431000184B53F82040E3681B68042B06D0246830
:10432000002CF8D1FEF7EEFF0446E8B1E368012166
:10433000DB6A20469847064698B12469A3689847E7
:10434000013008BF0C4C029408BF45F001058DE810
:10435000600053464A464146384600F017FB044683
:1043600000E0044603F008F8204604B0BDE8F087FA
:1043700014010020ACDF012038BA06082DE9FF4106
:104380000C9C05460E46174698467CB1FFF7F6FE94
:104390000B9B01930A9B029400933A464346314695
:1043A000284600F0F3FA044602F0E6FF204604B087
:1043B000BDE8F08137B50446F0B1FFF7DFFE0F4BE3
:1043C0001B681B6E9C4201D102F0C0F92046FEF72B
:1043D0005BFD0190406908B102F0B4FF02AD55F8F1
:1043E000043D1868FEF728FF2846FEF7BFFD20466B
:1043F000FEF78AFC02F0C0FF03B030BD14010020BC
:104400002DE9F04F87B00646039298460291FFF7D8
:10441000B5FE544B1A68547C534A1257012A204661
:104420009B4606DD04F0FEFC8146204604F00EFDAE
:1044300005E004F0E0FC8146204604F0E2FC04467E
:1044400036B305A904A8FFF7ABFD049A059BB6F99E
:104450000070B6F90250914409F1FF321C44B6F9DC
:104460000490B6F9063027EAE77725EAE575013CBE
:104470004A45D4BFC7EB0209C7EB09099C42D4BF28
:10448000C5EB0404C5EB030409F10109013401E0A3
:1044900035463746B8F1000F01D1C4F10008B9F133
:1044A000000F01DD002C03DC02F066FF002055E068
:1044B000109B00934A46434629463846FFF71CFFA7
:1044C000064630B90398029B984702F055FF012039
:1044D00044E000F07DF88442804606D0DBF80030EE
:1044E000986C10B1322107F0A4FB304600F0B6F909
:1044F000A2464FF00009D04503DD5146304600F09A
:1045000091F8B9F1000F08D0304605EB09023946A1
:1045100000F0CEF93046FFF76DFE029B03989847F6
:10452000124B1B680BB1FF2098473046C144FFF780
:1045300087FE4C45C8EB0A0ADDDC3046FFF73AFF40
:10454000002000F08BF94445AED0DBF80030986CC9
:104550000028A9D0332107F06CFBA5E707B0BDE820
:10456000F08F00BF14010020A9DF012038DF0120F7
:1045700037B5044698B1FFF701FE2046FEF784FCEC
:10458000036802AD1B6945F8040D9B68984705F068
:104590003EF804462846FEF7E9FC02F0EDFE204610
:1045A00003B030BD13B5044670B1FFF7E7FD2046F8
:1045B000FEF76AFC02AB00F1180443F8040D18463C
:1045C000FEF7D4FC02F0D8FE204602B010BD000079
:1045D00013B50446FFF7D2FD1CB90A4B1B681C6ECD
:1045E00054B12046FEF750FC02ABB0F90A4043F844
:1045F000040D1846FEF7BAFC02F0BEFE204602B0DB
:1046000010BD00BF1401002038B50546052428461A
:1046100007F03EFF10B9013CF9D138BDBDE8384084
:1046200000F078B937B50D46044618B90A4B1B6837
:104630001C6E7CB1FFF7A2FD2046FEF725FCB0F909
:104640000A300190AB42C8BF458101A8FEF78EFC3D
:1046500002F092FE03B030BD140100202DE9F04FAE
:1046600093B005460C46069299461D9EFFF786FDBF
:104670002146284607F06CFD002840F0EA80002E15
:1046800000F0E7802846FEF7FFFB0C902046FEF77F
:10469000FBFB0D902846FFF785FF09902046FFF7AA
:1046A00081FF4FF07A7393FBF6F30B930C9B0A9008
:1046B0001C98B3F90870B3F90A8003F0AEF80590BE
:1046C0001C9804F019F8059B02964FF47A7A0AFBBD
:1046D00003F40AFB00F5FB0395FBF6F505FB08F177
:1046E00094FBF6F4024603EB610104FB07F04FEA8A
:1046F000650EA1EB60014FEA640BCEEB0101069859
:10470000594405FB091104FB1011079104FB08FC37
:104710004FEAC83105FB07F0A1EB6C0CACEB600C69
:10472000DC440CEB0E0B069804FB19BB05FB10BB1D
:10473000059802FB06FE70439EFBFAFE90FBFAFA18
:104740000AFB08F0A1EB60010EFB07F00EFB08FE70
:10475000A3EB6E0E069E059B0AFB07FA01EB6001B8
:10476000AEEB6A000DF1380E8DE8800101EB0941D6
:1047700000EB0640CDF80CE00AF03EFB119B0D9AD1
:1047800005930599B2F90A30109FB2F90860DDF877
:104790003C909942A4BF03F1FF3305930E99079B08
:1047A00027EAE77721EAE17807FB153308FB0433B2
:1047B00007FB04BB079308FB05B3B14508930A9BAD
:1047C000A8BF06F1FF397E4303EB86064FEA880354
:1047D0000A93059B9F4236DC0A9BDDF820B0DDF88A
:1047E0001CA0CDF818801E44069B4B4519DC0B9B82
:1047F000009352465B4609990C980AF037F9030E6C
:10480000FF2B01D1306005E0DAB21BB131680AF04C
:1048100003FF3060069B0133A244AB440436069389
:10482000E2E70D9BB3F90830C9EB030303F18043C2
:10483000013B06EB8306079B5B1B0793089B234406
:1048400008930137C5E70CA8FEF790FB0DA8FEF70B
:104850008DFB02F091FD13B0BDE8F08FF7B5064671
:10486000FFF78CFC114B1A681C46176E16B901F045
:104870006DFF16E00FB101F069FF05F045FB304612
:10488000FEF702FB02AD236845F8040D1E660068C2
:10489000FEF7D4FC2846FEF769FB04F07BFD04F02C
:1048A000C7FC02F069FD384603B0F0BD14010020DA
:1048B00073B50D461446064618B9154B1B681E6E97
:1048C00026B3FFF75BFC3046FEF7DEFA24B22DB2CA
:1048D000C4808580009004F0ABFC009B586980B1D7
:1048E000FEF7D2FA009B0190B3F90820B3F90A3021
:1048F0008280C38012B10BB10580448001A8FEF70D
:1049000035FB6846FEF732FB02F036FD02B070BDA3
:1049100014010020014A114600F002B801F0FFFF27
:104920007FB50C461546064660B3FFF727FC3046B8
:10493000FEF7AAFA144B01909C42038904BFB0F918
:104940000440B0F90650ADF80840013B2344ADF8EF
:104950000C304389ADF80A50013B2B4401A8ADF857
:104960000E30FEF703FB02A806F0ACFD10B902F012
:1049700003FD07E02A462146304600F031F906F0F3
:10498000A9FCF3E704B070BD01F0FFFF2DE9F04F83
:10499000464D87B01C462B68109F5B7C81468A463B
:1049A0009046129911980022FEF70CFC03950646DA
:1049B00080B303699B68984704F029FE00FB08F563
:1049C0000290FEF7A1FA17F0010708BF042305F1D2
:1049D000070504BF90FBF3F000EB4000002C4FEA0A
:1049E000D50544DC1DB11838B0FBF5F000E02846D1
:1049F00064428442A8BF044677B9009723464246E2
:104A00005146484602F020FC002C834639DC3046F3
:104A1000FEF712FC002046E0002CF8DD05FB04F058
:104A20001830FEF73DF907460028F0D04FF0000B94
:104A30003846FEF729FA034606A8029A40F8043DD4
:104A4000A3F804901E60A3F806A0A3F808805C8178
:104A5000DD601A61C3F814B0FEF788FA129B336167
:104A6000039BB7601B685B7CB36138461BE0002F7B
:104A7000D4D10097234642465146484602F0E4FB13
:104A8000834605FB04F01830FEF718F907460028A6
:104A9000CED13046FEF7D0FBBBF1000FBAD058465E
:104AA000FEF732F9E1E707B0BDE8F08F140100200E
:104AB0002DE9F047454D464BD5F800E0454E9EF8B0
:104AC0001140D6F800C053F824408CB00746059139
:104AD00004922369BCF1000F12D0E268DEF8601086
:104AE000126819B9B2FA82F2520905E0072A04D015
:104AF000394A991A4A424A412AB9049A05993846CC
:104B00000CF07AF95FE03846FEF7BEF903460CA8D0
:104B1000B3F9084040F8083DB3F90A90D3F80C8087
:104B2000FEF724FA08AB06AA05A9204607F020FBE9
:104B3000069B002B47DD09AB07AA04A9484607F0EE
:104B400039FB079B002B3EDD3846FFF72BFD099B09
:104B5000089F03FB04772B6800EB8707186E28B3C8
:104B6000DDF81490049DFEF78FF904460CA8B4F903
:104B70000630D4F80CA040F8044DED1AB4F9043016
:104B8000C3EB09094FEA89090AFB059518352C443E
:104B9000FEF7ECF9BCB1CDF80480CDF800A0356883
:104BA000079B069A39462046A8470CE0587C079B8D
:104BB0000193069B0093A400084B02941C68049A7E
:104BC00005993B46A0470CB0BDE8F08714010020D2
:104BD000ACDF0120B4DF012038BA0608D0BD0120C7
:104BE0002DE9F3410F4690460646FEF74DF903685E
:104BF00002ACDB6844F8040D5B6A1621002098477C
:104C000005462046FEF7B2F91DB142463946304608
:104C1000A84702B0BDE8F0812DE9F04F9BB00546F2
:104C200008910992002800F09983FEF72DF91AAB3C
:104C3000446943F81C0D1846FEF798F92846FFF71B
:104C400097FC08280746A54E02DD002C00F0C9811C
:104C500001230027284619930D931897FEF714F99E
:104C60000268B0F90A3012690E930DF168095368B1
:104C7000326849F8140D0469D0F81480D0F80CA0FB
:104C8000B0F908B0507C0C93FFF712F932680B9022
:104C9000507CFFF7DDF90A904846FEF767F9082CCB
:104CA0000A9A0D9B04D9102C8CBF0423022305E023
:104CB000012C03D118AB0D940A9301E00D930A97D0
:104CC0000C9B934200F0DF803368587CFFF7B8F903
:104CD0000F904FEA8B00FDF7E3FF1090002800F0E3
:104CE0003D832846FFF75EFC0546B8F1000F00F053
:104CF000B9804046FEF7C8F805EB0A03119300237C
:104D0000DDF8249016900993119B099ACAEB0307CA
:104D10000E9B934240F3A2801698099A00231793A2
:104D200083680DF15C085B694146984783450546F9
:104D300028D11098FEF7A8F80F9B0193082C0C9B24
:104D40001490014600935A460B9B384602D907F04F
:104D5000D8FA01E007F0F4FA0A9B05931AAD089817
:104D600055F8183D0493002303930B9B02930123F2
:104D7000019300935A46494603F0EEFD2846FEF79C
:104D8000F5F862E0012C02D04FF0010857E0002D49
:104D90005BD01798089ECDF80CA000F0070306938F
:104DA0000A9B0593082390FBF3F33B4404930123F0
:104DB0002A460293019300934946304404F0FCFADA
:104DC000179B1698099A1D44836817955B6941469D
:104DD00098470546DBE71098FEF756F80F9B1490AE
:104DE00001460D9E17980193082C0C9B00932A46B0
:104DF0000B9B00FB067025D907F083FA0A9B0593ED
:104E0000149B04931798089ECDF804800023039305
:104E10000B9B02932A46012349463044CDF800807B
:104E200003F09AFD14A8FEF7A1F8179B1698099AAB
:104E30001D44836817955B6917A998470546002D9F
:104E4000C9D102E007F07CFAD8E7099B0133099346
:104E5000119B5344119309F1010955E716A8FEF778
:104E600085F80EE00A9B05930123049001930093BB
:104E7000CDF80CA002940E9B099908985A4603F0AD
:104E80006BFD109868E22846FFF78CFB0746B8F1E7
:104E9000000F00F09A804046FDF7F6FF00251690BF
:104EA0000E9BAB4240F38D801698002317938368C6
:104EB0000DF15C085B692A464146984783450646E2
:104EC00026D12E461698836806F101095B694A4689
:104ED00041469847834503D14E46F3E7140100202D
:104EE0000A9B09990593C5EB0608012308F10108FF
:104EF0000497019300932944CDF80CA002944346F3
:104F00005A46089803F028FD0AFB0877354656E014
:104F1000012C099B04D02B440B934FF001092BE08B
:104F200003EB0509A0462EB3DDF85CE00898CDF848
:104F30000CA00EF0070306930A9B059308239EFB23
:104F4000F3F33B4432467044049349460123CDF8C1
:104F50000880CDF80480CDF8008004F02DFA179B6E
:104F600016981E44836817965B692A4617A99847C6
:104F70000646D8E7574422E0002EFBD00A9BDDF816
:104F80005CE005930D9B08980B99CDF80CA003FBF2
:104F90000E7332467044049302940123CDF80490BA
:104FA000CDF8009003F0D8FC179B16981E44836838
:104FB00017965B692A46414698470646DCE7013565
:104FC0006EE716A8FDF7D2FFC8E10A9B05930123FF
:104FD000019300930490CDF80CA002940E9B5A46C6
:104FE0003AE02846FDF750FF83461AA8BBF90A307D
:104FF00040F810BDDBF800200B93DBF80C30D2F842
:1050000010800C93BBF90840FDF7B0FF3268D8F868
:105010000490507CA14A52F82020166933680A9304
:10502000FEF746FF08280C9B06D910288CBF4FF0CE
:10503000040A4FF0020A01E04FF0010AB04510D116
:105040000393012300220BF11800019300930B9BA3
:1050500005920490029722460999089803F07CFC77
:105060007CE1202F40F0A2800AFB04F0FDF718FE3F
:105070000D90002800F07281FDF706FF1890284679
:10508000FDF702FF169033694FEACA0200F11805D6
:105090004FEA840B0C9273B3DDF824804FF00109C2
:1050A000BAF1020F05D0BAF1040F02D0BAF1010F24
:1050B00006D128463769189953462246B8475D44B9
:1050C0000023189A059303930C9B049202932246A3
:1050D0000123CDF80490CDF800904146089803F0E4
:1050E0003BFC0B9B099A08F1010713449F4200F017
:1050F0002C81B846D4E7099F1E460B9B3B444FF0DA
:1051000001090993BAF1020FDDF8608016D0BAF1F7
:10511000040F24D0BAF1010F30D143462A4652F889
:10512000040B0E930A9B0B9298470E9B0B9A03F865
:10513000010BE11A18EB010FF1D11EE043462A469C
:10514000A04652F8040B0E930A9B0B9298470E9BB5
:105150000B9A23F8020BB8F10108F2D10DE02A46B0
:10516000234652F8040B0E930A9B0B9298470E9B12
:1051700048F8040B013B0B9AF3D15D44189B049350
:105180000C9B0293059601230396CDF80490CDF86D
:10519000009022463946089803F0DEFB099B07F190
:1051A0000108434500F0D1804746ABE7102F40F09F
:1051B000D58004FB0AF0FDF773FD0D90002800F088
:1051C000CD80FDF761FE18902846FDF75DFE169034
:1051D000336900F1180713B1D8F8143053B94FEA06
:1051E000CA03099D0C930B9B2B4466004FF0000BE8
:1051F000099383E0B0F908008000FDF751FD0C90A1
:1052000018B1FDF741FE179001E00C9B1793179B17
:10521000002B00F09A8063000A93DDF824B04FEA77
:10522000CA030E93BAF1020FDDF8609006D0BAF10E
:10523000040F05D0BAF1010F11D101E0534600E08F
:105240000223384622461799D8F81450A8475346E7
:105250002246494617983569A8470A9B1F440023F0
:10526000059303930E9B189A0293012304920193D2
:10527000009322465946089803F06EFB0B9B099A4F
:105280000BF101091344994501D0CB46CAE717A891
:10529000FDF76CFE0C98FDF737FD56E0ACDF012002
:1052A000BAF1040F41D0BAF1010F11D143463A4689
:1052B00032F8020B0B920E93C8470A9B98470E9B3D
:1052C0000B9A03F8010BE11A18EB010FF0D13744E8
:1052D000189B04930C9B0293012301930093CDF838
:1052E00014B0CDF80CB022462946089803F034FBE0
:1052F000099B05F10108434527D04546BAF1020F45
:10530000DDF86080CCD143463A46A04632F8020B25
:105310000B920E93C8470A9B98470E9B0B9A23F853
:10532000020BB8F10108F1D1D1E73A46234632F831
:10533000020B0B920E93C8470A9B98470E9B48F8A6
:10534000040B013B0B9AF2D1C1E716A8FDF70EFE44
:1053500018A8FDF70BFE0D98FDF7D6FC1BB0BDE8B5
:10536000F08F00BF10B538B309B30AB3B2F90040EB
:10537000B1F90030A342A8BF23460380B2F902402E
:10538000B1F90230A342A8BF23464380B2F90440DA
:10539000B1F90430B2F90620A342B8BF2346838096
:1053A000B1F906309342B8BF1346C38010BD114611
:1053B0000B6803604B68436010BD68B1038889B215
:1053C0000B440380838819444388818092B213443C
:1053D0004380C3881A44C28070470000114A136892
:1053E00051688B4270B5044616460F4D09D1AB4249
:1053F00006BF3C3393E8070013E9070084E8070081
:105400000AE093E8070084E8070005F13C029342B4
:1054100018BF03F10C053560207A003018BF012059
:1054200070BD00BFEC010020A4BC0120024B09CBE1
:10543000C31A584258417047EC010020F0B5274C80
:10544000236D85B006462BB92046254B40F8503FCA
:1054500003F000F9234B244A1A6096E80700E36C36
:1054600001AD85E807000BB1284698471F4EDFF8CD
:1054700080E0376873689F4217D0A34214BFA3F13E
:105480000C0272469DF80C10107A88420DD197429A
:105490000BD0A24214BF0C3A154A127A8A4204D1A8
:1054A000A34214BF0C3B124B736095E8070073686E
:1054B000734583E807000CBF084B0C339F427360B1
:1054C00004D1774514BF0C37044F3760A36C0BB180
:1054D0002846984701F01AFA05B0F0BDA4BC012097
:1054E0005DF8000820BE0120F5A30008EC010020B3
:1054F000E0BC012010B5FEF741FE0B4A136851686D
:105500008B420BD0094CA34293E8030014BF08332D
:10551000503B1360012405F0D5FA00E0002401F0AF
:105520002BFF204610BD00BF18010020F4DD012034
:105530002DE9F04F8DB00446049115461E46FEF746
:105540001DFEFDF799FC002C00F00781282E00F2CB
:105550000481032D00F3018118200AF056F88346D8
:10556000002800F0FA8000238360C3600660456075
:1055700003612378002B00F0F4802378002B00F0E7
:10558000F4800221204609F085FD0346E8BBDBF8E4
:1055900000100AF051FD064620460378303B092BE7
:1055A00000F1010201D81046F7E70221051B09F0BE
:1055B00071FD022801460DD128460AF07DFF3044D6
:1055C0000C306E1CA0EBC600002815DD0A462046F4
:1055D000594623E001280FD128460AF06DFF014605
:1055E000681C0AF05FFF0E440A36301A002803DDFB
:1055F0000222594620460EE023462A4600215846FC
:105600000AF02EFD00280CDAABE0012B4FF002026D
:105610005946204602D108F08BFD01E008F024FD38
:105620000546002D00F0A180C0F29B802C44A4E729
:10563000029B25EAE57503EB0517039B05FB043484
:10564000059B06FB0535009B002B40F0548300238F
:10565000C9F82030B9F1000F00F08181D9F800308D
:105660000093009A07991C2303FB0213D3F8FCA0B4
:10567000531E272B00F27485BA4B03EB82035E683E
:10568000002E00F06B83009BB64C04EB8304636830
:10569000002B00F065850AFB0AF31846019309F018
:1056A000B4FF0746002800F05B85AF4B019A1B68EA
:1056B00061689847182009F0A8FF0646002800F006
:1056C00054850AF1FF338360C3604FF0FF33C0F8A5
:1056D00000A04760036143614FF00008D9F804203F
:1056E000D9F808101144884580F26C84D9F820302C
:1056F0009A4240F34684D9F81C00D9F81820016872
:1057000093FBF2F48C42A8BFD9F8141002FB1432B8
:10571000A8BF521800EB02125268155D0133C9F898
:1057200020300821802330460391029308F0D6FEF2
:10573000029B03990446002840F0368448460BF04B
:1057400045F9304609F0D0F8384609F0CDF858460A
:105750000AF09BFC002C40F00D814FF0000800F097
:1057600008BD58460AF091FCF7E7DBF80030282B1B
:1057700000F2F580DBF80430032B00F3F0802420E6
:1057800009F043FF8146002800F0E980DBF8103083
:10579000B3B1012B03D100221146062006E0022BF3
:1057A00040F0D3820BF11402012107200AF096FE8B
:1057B000002800F0CA82DBF808300361CBF808004B
:1057C000DBF8083000930025002D14BF2B46012381
:1057D000DDF800A00193002402274FF00D08BAF174
:1057E000000F52D0DAF80060072E31D8DFE806F05B
:1057F000060B1115481C042E042242E0DAF80400BE
:105800000AF05AFE03E0DAF804000AF04BFE024602
:1058100021E0DAF80420D2001DE0DAF8042092FB3F
:10582000F7F208FB02F216E0DAF8081000230A1D6E
:1058300012F8010D914240EA0323F9D17F2B09D9D7
:10584000B3F5804F34BF14221C2204E00C2218E070
:10585000002216E00C22032E04D8019930460AF0EB
:10586000EBFB00E00020012303FA00F1DAF804303A
:1058700004300B44013B93FBF1F300FB032200E0F7
:1058800014221444DAF810A0A9E7DBF80410082366
:105890000734890094FBF3F41C200123334A00FBF6
:1058A000032256185268F668921B94422F4E40F31A
:1058B00003810133292BF1D14FF0FF33DBF80020B6
:1058C0009A4203DA282B98BFCBF800301C27DBF86C
:1058D00008500024002D00F0F480DBF8001028466A
:1058E0000AF0E4FB0028C0F2308204442D69F1E79D
:1058F00006F0F1FB0546002800F02782DBF808409F
:10590000002C40F0F8801A49DBF80030DBF8042066
:10591000D5F800A01C2000FB0310C3EBC303134405
:1059200001EB8303D0F80061D3F80831C3EB06081C
:105930004FEAC8018A4500F3058240F0E5802E68F1
:10594000002E40F02B810024284606F0CDFBC9F83C
:105950000C40002C40F05581484608F0C5FF00245B
:10596000F5E600BF00DE0120BCCE01209C30060819
:10597000A02F0608049BA768266803FB07F909F116
:105980000705082395FBF3F505FB09F03030FDF71B
:1059900095F98046002869D0FDF776FA636843617F
:1059A000A36883610123C38000F11C03C360022349
:1059B000C36100F128031FFA89F943624FF07F4366
:1059C0000B9000F13001A0F80290A0F800908362E3
:1059D0004FF000094FF0FF338580816080F8209000
:1059E000C362B9453FDA0846B6468022C6EB0E03CD
:1059F0009F4222DD4FF0000C049B9C451ADA9EF872
:105A000000A003781AF0020F0AF0010A03D0BAF1DD
:105A1000000F03D005E0BAF1000F02D023EA020321
:105A200000E013435208037004BF802201300CF1E0
:105A3000010CE1E70EF1010ED8E7002FA8BFF6191F
:105A40004FF0010A049B9A4501EB050307DA2A4649
:105A50001846FAF746FC0AF1010A0146F2E7194630
:105A600009F10109BDE70BA8FDF780FA206808F0ED
:105A70003BFF204608F038FFB54C002604F1A00596
:105A8000206808F031FF44F8046BA542F8D1B14B0F
:105A90001C681D4674B1A068E66A08F025FFE0683E
:105AA00008F022FF206908F01FFF204608F01CFFC5
:105AB0003446EFE72C605CE39D42BFF6FFAE1D4627
:105AC00082E6DBF8043007349A00E410012307FB78
:105AD000036188184968C068091A8C4203DD0133E4
